{
  "contractName": "TestContract",
  "abi": [
    {
      "anonymous": false,
      "inputs": [
        {
          "indexed": false,
          "internalType": "address",
          "name": "previousAdmin",
          "type": "address"
        },
        {
          "indexed": false,
          "internalType": "address",
          "name": "newAdmin",
          "type": "address"
        }
      ],
      "name": "AdminChanged",
      "type": "event"
    },
    {
      "anonymous": false,
      "inputs": [
        {
          "indexed": true,
          "internalType": "address",
          "name": "beacon",
          "type": "address"
        }
      ],
      "name": "BeaconUpgraded",
      "type": "event"
    },
    {
      "anonymous": false,
      "inputs": [
        {
          "indexed": false,
          "internalType": "uint8",
          "name": "version",
          "type": "uint8"
        }
      ],
      "name": "Initialized",
      "type": "event"
    },
    {
      "anonymous": false,
      "inputs": [
        {
          "indexed": true,
          "internalType": "address",
          "name": "previousOwner",
          "type": "address"
        },
        {
          "indexed": true,
          "internalType": "address",
          "name": "newOwner",
          "type": "address"
        }
      ],
      "name": "OwnershipTransferred",
      "type": "event"
    },
    {
      "anonymous": false,
      "inputs": [
        {
          "indexed": true,
          "internalType": "address",
          "name": "implementation",
          "type": "address"
        }
      ],
      "name": "Upgraded",
      "type": "event"
    },
    {
      "inputs": [],
      "name": "getTrustedForwarder",
      "outputs": [
        {
          "internalType": "address",
          "name": "forwarder",
          "type": "address"
        }
      ],
      "stateMutability": "view",
      "type": "function",
      "constant": true
    },
    {
      "inputs": [],
      "name": "owner",
      "outputs": [
        {
          "internalType": "address",
          "name": "",
          "type": "address"
        }
      ],
      "stateMutability": "view",
      "type": "function",
      "constant": true
    },
    {
      "inputs": [],
      "name": "proxiableUUID",
      "outputs": [
        {
          "internalType": "bytes32",
          "name": "",
          "type": "bytes32"
        }
      ],
      "stateMutability": "view",
      "type": "function",
      "constant": true
    },
    {
      "inputs": [],
      "name": "renounceOwnership",
      "outputs": [],
      "stateMutability": "nonpayable",
      "type": "function"
    },
    {
      "inputs": [
        {
          "internalType": "address",
          "name": "newOwner",
          "type": "address"
        }
      ],
      "name": "transferOwnership",
      "outputs": [],
      "stateMutability": "nonpayable",
      "type": "function"
    },
    {
      "inputs": [
        {
          "internalType": "address",
          "name": "newImplementation",
          "type": "address"
        }
      ],
      "name": "upgradeTo",
      "outputs": [],
      "stateMutability": "nonpayable",
      "type": "function"
    },
    {
      "inputs": [
        {
          "internalType": "address",
          "name": "newImplementation",
          "type": "address"
        },
        {
          "internalType": "bytes",
          "name": "data",
          "type": "bytes"
        }
      ],
      "name": "upgradeToAndCall",
      "outputs": [],
      "stateMutability": "payable",
      "type": "function",
      "payable": true
    },
    {
      "inputs": [
        {
          "internalType": "address",
          "name": "_forwarder",
          "type": "address"
        }
      ],
      "name": "initialize",
      "outputs": [],
      "stateMutability": "nonpayable",
      "type": "function"
    },
    {
      "inputs": [
        {
          "internalType": "address",
          "name": "forwarder",
          "type": "address"
        }
      ],
      "name": "isTrustedForwarder",
      "outputs": [
        {
          "internalType": "bool",
          "name": "",
          "type": "bool"
        }
      ],
      "stateMutability": "view",
      "type": "function",
      "constant": true
    },
    {
      "inputs": [
        {
          "internalType": "string",
          "name": "_text",
          "type": "string"
        }
      ],
      "name": "setString",
      "outputs": [],
      "stateMutability": "nonpayable",
      "type": "function"
    }
  ],
  "bytecode": "0x60a06040523073ffffffffffffffffffffffffffffffffffffffff1660809073ffffffffffffffffffffffffffffffffffffffff1681525034801561004357600080fd5b50608051611e7461007b6000396000818161022d015281816102bb015281816103b50152818161044301526104f30152611e746000f3fe6080604052600436106100915760003560e01c80637fcaf666116100595780637fcaf6661461015a5780638da5cb5b14610183578063c4d66de8146101ae578063ce1b815f146101d7578063f2fde38b1461020257610091565b80633659cfe6146100965780634f1ef286146100bf57806352d1902d146100db578063572b6c0514610106578063715018a614610143575b600080fd5b3480156100a257600080fd5b506100bd60048036038101906100b8919061102d565b61022b565b005b6100d960048036038101906100d491906111a0565b6103b3565b005b3480156100e757600080fd5b506100f06104ef565b6040516100fd9190611215565b60405180910390f35b34801561011257600080fd5b5061012d6004803603810190610128919061102d565b6105a8565b60405161013a919061124b565b60405180910390f35b34801561014f57600080fd5b50610158610602565b005b34801561016657600080fd5b50610181600480360381019061017c9190611307565b610616565b005b34801561018f57600080fd5b5061019861066d565b6040516101a5919061135f565b60405180910390f35b3480156101ba57600080fd5b506101d560048036038101906101d0919061102d565b610697565b005b3480156101e357600080fd5b506101ec61081f565b6040516101f9919061135f565b60405180910390f35b34801561020e57600080fd5b506102296004803603810190610224919061102d565b610849565b005b7f000000000000000000000000000000000000000000000000000000000000000073ffffffffffffffffffffffffffffffffffffffff163073ffffffffffffffffffffffffffffffffffffffff16036102b9576040517f08c379a00000000000000000000000000000000000000000000000000000000081526004016102b0906113fd565b60405180910390fd5b7f000000000000000000000000000000000000000000000000000000000000000073ffffffffffffffffffffffffffffffffffffffff166102f86108cc565b73ffffffffffffffffffffffffffffffffffffffff161461034e576040517f08c379a00000000000000000000000000000000000000000000000000000000081526004016103459061148f565b60405180910390fd5b61035781610923565b6103b081600067ffffffffffffffff81111561037657610375611075565b5b6040519080825280601f01601f1916602001820160405280156103a85781602001600182028036833780820191505090505b50600061092e565b50565b7f000000000000000000000000000000000000000000000000000000000000000073ffffffffffffffffffffffffffffffffffffffff163073ffffffffffffffffffffffffffffffffffffffff1603610441576040517f08c379a0000000000000000000000000000000000000000000000000000000008152600401610438906113fd565b60405180910390fd5b7f000000000000000000000000000000000000000000000000000000000000000073ffffffffffffffffffffffffffffffffffffffff166104806108cc565b73ffffffffffffffffffffffffffffffffffffffff16146104d6576040517f08c379a00000000000000000000000000000000000000000000000000000000081526004016104cd9061148f565b60405180910390fd5b6104df82610923565b6104eb8282600161092e565b5050565b60007f000000000000000000000000000000000000000000000000000000000000000073ffffffffffffffffffffffffffffffffffffffff163073ffffffffffffffffffffffffffffffffffffffff161461057f576040517f08c379a000000000000000000000000000000000000000000000000000000000815260040161057690611521565b60405180910390fd5b7f360894a13ba1a3210667c828492db98dca3e2076cc3735a920a3ca505d382bbc60001b905090565b600060ca60009054906101000a900473ffffffffffffffffffffffffffffffffffffffff1673ffffffffffffffffffffffffffffffffffffffff168273ffffffffffffffffffffffffffffffffffffffff16149050919050565b61060a610a9c565b6106146000610b1a565b565b8060cb6000610623610be0565b73ffffffffffffffffffffffffffffffffffffffff1673ffffffffffffffffffffffffffffffffffffffff16815260200190815260200160002090816106699190611762565b5050565b6000603360009054906101000a900473ffffffffffffffffffffffffffffffffffffffff16905090565b60008060019054906101000a900460ff161590508080156106c85750600160008054906101000a900460ff1660ff16105b806106f557506106d730610bef565b1580156106f45750600160008054906101000a900460ff1660ff16145b5b610734576040517f08c379a000000000000000000000000000000000000000000000000000000000815260040161072b906118a6565b60405180910390fd5b60016000806101000a81548160ff021916908360ff1602179055508015610771576001600060016101000a81548160ff0219169083151502179055505b610779610c12565b610781610c63565b8160ca60006101000a81548173ffffffffffffffffffffffffffffffffffffffff021916908373ffffffffffffffffffffffffffffffffffffffff160217905550801561081b5760008060016101000a81548160ff0219169083151502179055507f7f26b83ff96e1f2b6a682f133852f6798a09c465da95921460cefb38474024986001604051610812919061190e565b60405180910390a15b5050565b600060c960009054906101000a900473ffffffffffffffffffffffffffffffffffffffff16905090565b610851610a9c565b600073ffffffffffffffffffffffffffffffffffffffff168173ffffffffffffffffffffffffffffffffffffffff16036108c0576040517f08c379a00000000000000000000000000000000000000000000000000000000081526004016108b79061199b565b60405180910390fd5b6108c981610b1a565b50565b60006108fa7f360894a13ba1a3210667c828492db98dca3e2076cc3735a920a3ca505d382bbc60001b610cc4565b60000160009054906101000a900473ffffffffffffffffffffffffffffffffffffffff16905090565b61092b610a9c565b50565b61095a7f4910fdfa16fed3260ed0e7147f7cc6da11a60208b5b9406d12a635614ffd914360001b610cce565b60000160009054906101000a900460ff161561097e5761097983610cd8565b610a97565b8273ffffffffffffffffffffffffffffffffffffffff166352d1902d6040518163ffffffff1660e01b8152600401602060405180830381865afa9250505080156109e657506040513d601f19601f820116820180604052508101906109e391906119e7565b60015b610a25576040517f08c379a0000000000000000000000000000000000000000000000000000000008152600401610a1c90611a86565b60405180910390fd5b7f360894a13ba1a3210667c828492db98dca3e2076cc3735a920a3ca505d382bbc60001b8114610a8a576040517f08c379a0000000000000000000000000000000000000000000000000000000008152600401610a8190611b18565b60405180910390fd5b50610a96838383610d91565b5b505050565b610aa4610be0565b73ffffffffffffffffffffffffffffffffffffffff16610ac261066d565b73ffffffffffffffffffffffffffffffffffffffff1614610b18576040517f08c379a0000000000000000000000000000000000000000000000000000000008152600401610b0f90611b84565b60405180910390fd5b565b6000603360009054906101000a900473ffffffffffffffffffffffffffffffffffffffff16905081603360006101000a81548173ffffffffffffffffffffffffffffffffffffffff021916908373ffffffffffffffffffffffffffffffffffffffff1602179055508173ffffffffffffffffffffffffffffffffffffffff168173ffffffffffffffffffffffffffffffffffffffff167f8be0079c531659141344cd1fd0a4f28419497f9722a3daafe3b4186f6b6457e060405160405180910390a35050565b6000610bea610dbd565b905090565b6000808273ffffffffffffffffffffffffffffffffffffffff163b119050919050565b600060019054906101000a900460ff16610c61576040517f08c379a0000000000000000000000000000000000000000000000000000000008152600401610c5890611c16565b60405180910390fd5b565b600060019054906101000a900460ff16610cb2576040517f08c379a0000000000000000000000000000000000000000000000000000000008152600401610ca990611c16565b60405180910390fd5b610cc2610cbd610be0565b610b1a565b565b6000819050919050565b6000819050919050565b610ce181610bef565b610d20576040517f08c379a0000000000000000000000000000000000000000000000000000000008152600401610d1790611ca8565b60405180910390fd5b80610d4d7f360894a13ba1a3210667c828492db98dca3e2076cc3735a920a3ca505d382bbc60001b610cc4565b60000160006101000a81548173ffffffffffffffffffffffffffffffffffffffff021916908373ffffffffffffffffffffffffffffffffffffffff16021790555050565b610d9a83610df4565b600082511180610da75750805b15610db857610db68383610e43565b505b505050565b60006014600036905010158015610dd95750610dd8336105a8565b5b15610ded57601436033560601c9050610df1565b3390505b90565b610dfd81610cd8565b8073ffffffffffffffffffffffffffffffffffffffff167fbc7cd75a20ee27fd9adebab32041f755214dbc6bffa90cc0225b39da2e5c2d3b60405160405180910390a250565b6060610e688383604051806060016040528060278152602001611e1860279139610e70565b905092915050565b60606000808573ffffffffffffffffffffffffffffffffffffffff1685604051610e9a9190611d39565b600060405180830381855af49150503d8060008114610ed5576040519150601f19603f3d011682016040523d82523d6000602084013e610eda565b606091505b5091509150610eeb86838387610ef6565b925050509392505050565b60608315610f58576000835103610f5057610f1085610bef565b610f4f576040517f08c379a0000000000000000000000000000000000000000000000000000000008152600401610f4690611d9c565b60405180910390fd5b5b829050610f63565b610f628383610f6b565b5b949350505050565b600082511115610f7e5781518083602001fd5b806040517f08c379a0000000000000000000000000000000000000000000000000000000008152600401610fb29190611df5565b60405180910390fd5b6000604051905090565b600080fd5b600080fd5b600073ffffffffffffffffffffffffffffffffffffffff82169050919050565b6000610ffa82610fcf565b9050919050565b61100a81610fef565b811461101557600080fd5b50565b60008135905061102781611001565b92915050565b60006020828403121561104357611042610fc5565b5b600061105184828501611018565b91505092915050565b600080fd5b600080fd5b6000601f19601f8301169050919050565b7f4e487b7100000000000000000000000000000000000000000000000000000000600052604160045260246000fd5b6110ad82611064565b810181811067ffffffffffffffff821117156110cc576110cb611075565b5b80604052505050565b60006110df610fbb565b90506110eb82826110a4565b919050565b600067ffffffffffffffff82111561110b5761110a611075565b5b61111482611064565b9050602081019050919050565b82818337600083830152505050565b600061114361113e846110f0565b6110d5565b90508281526020810184848401111561115f5761115e61105f565b5b61116a848285611121565b509392505050565b600082601f8301126111875761118661105a565b5b8135611197848260208601611130565b91505092915050565b600080604083850312156111b7576111b6610fc5565b5b60006111c585828601611018565b925050602083013567ffffffffffffffff8111156111e6576111e5610fca565b5b6111f285828601611172565b9150509250929050565b6000819050919050565b61120f816111fc565b82525050565b600060208201905061122a6000830184611206565b92915050565b60008115159050919050565b61124581611230565b82525050565b6000602082019050611260600083018461123c565b92915050565b600067ffffffffffffffff82111561128157611280611075565b5b61128a82611064565b9050602081019050919050565b60006112aa6112a584611266565b6110d5565b9050828152602081018484840111156112c6576112c561105f565b5b6112d1848285611121565b509392505050565b600082601f8301126112ee576112ed61105a565b5b81356112fe848260208601611297565b91505092915050565b60006020828403121561131d5761131c610fc5565b5b600082013567ffffffffffffffff81111561133b5761133a610fca565b5b611347848285016112d9565b91505092915050565b61135981610fef565b82525050565b60006020820190506113746000830184611350565b92915050565b600082825260208201905092915050565b7f46756e6374696f6e206d7573742062652063616c6c6564207468726f7567682060008201527f64656c656761746563616c6c0000000000000000000000000000000000000000602082015250565b60006113e7602c8361137a565b91506113f28261138b565b604082019050919050565b60006020820190508181036000830152611416816113da565b9050919050565b7f46756e6374696f6e206d7573742062652063616c6c6564207468726f7567682060008201527f6163746976652070726f78790000000000000000000000000000000000000000602082015250565b6000611479602c8361137a565b91506114848261141d565b604082019050919050565b600060208201905081810360008301526114a88161146c565b9050919050565b7f555550535570677261646561626c653a206d757374206e6f742062652063616c60008201527f6c6564207468726f7567682064656c656761746563616c6c0000000000000000602082015250565b600061150b60388361137a565b9150611516826114af565b604082019050919050565b6000602082019050818103600083015261153a816114fe565b9050919050565b600081519050919050565b7f4e487b7100000000000000000000000000000000000000000000000000000000600052602260045260246000fd5b6000600282049050600182168061159357607f821691505b6020821081036115a6576115a561154c565b5b50919050565b60008190508160005260206000209050919050565b60006020601f8301049050919050565b600082821b905092915050565b60006008830261160e7fffffffffffffffffffffffffffffffffffffffffffffffffffffffffffffffff826115d1565b61161886836115d1565b95508019841693508086168417925050509392505050565b6000819050919050565b6000819050919050565b600061165f61165a61165584611630565b61163a565b611630565b9050919050565b6000819050919050565b61167983611644565b61168d61168582611666565b8484546115de565b825550505050565b600090565b6116a2611695565b6116ad818484611670565b505050565b5b818110156116d1576116c660008261169a565b6001810190506116b3565b5050565b601f821115611716576116e7816115ac565b6116f0846115c1565b810160208510156116ff578190505b61171361170b856115c1565b8301826116b2565b50505b505050565b600082821c905092915050565b60006117396000198460080261171b565b1980831691505092915050565b60006117528383611728565b9150826002028217905092915050565b61176b82611541565b67ffffffffffffffff81111561178457611783611075565b5b61178e825461157b565b6117998282856116d5565b600060209050601f8311600181146117cc57600084156117ba578287015190505b6117c48582611746565b86555061182c565b601f1984166117da866115ac565b60005b82811015611802578489015182556001820191506020850194506020810190506117dd565b8683101561181f578489015161181b601f891682611728565b8355505b6001600288020188555050505b505050505050565b7f496e697469616c697a61626c653a20636f6e747261637420697320616c72656160008201527f647920696e697469616c697a6564000000000000000000000000000000000000602082015250565b6000611890602e8361137a565b915061189b82611834565b604082019050919050565b600060208201905081810360008301526118bf81611883565b9050919050565b6000819050919050565b600060ff82169050919050565b60006118f86118f36118ee846118c6565b61163a565b6118d0565b9050919050565b611908816118dd565b82525050565b600060208201905061192360008301846118ff565b92915050565b7f4f776e61626c653a206e6577206f776e657220697320746865207a65726f206160008201527f6464726573730000000000000000000000000000000000000000000000000000602082015250565b600061198560268361137a565b915061199082611929565b604082019050919050565b600060208201905081810360008301526119b481611978565b9050919050565b6119c4816111fc565b81146119cf57600080fd5b50565b6000815190506119e1816119bb565b92915050565b6000602082840312156119fd576119fc610fc5565b5b6000611a0b848285016119d2565b91505092915050565b7f45524331393637557067726164653a206e657720696d706c656d656e7461746960008201527f6f6e206973206e6f742055555053000000000000000000000000000000000000602082015250565b6000611a70602e8361137a565b9150611a7b82611a14565b604082019050919050565b60006020820190508181036000830152611a9f81611a63565b9050919050565b7f45524331393637557067726164653a20756e737570706f727465642070726f7860008201527f6961626c65555549440000000000000000000000000000000000000000000000602082015250565b6000611b0260298361137a565b9150611b0d82611aa6565b604082019050919050565b60006020820190508181036000830152611b3181611af5565b9050919050565b7f4f776e61626c653a2063616c6c6572206973206e6f7420746865206f776e6572600082015250565b6000611b6e60208361137a565b9150611b7982611b38565b602082019050919050565b60006020820190508181036000830152611b9d81611b61565b9050919050565b7f496e697469616c697a61626c653a20636f6e7472616374206973206e6f74206960008201527f6e697469616c697a696e67000000000000000000000000000000000000000000602082015250565b6000611c00602b8361137a565b9150611c0b82611ba4565b604082019050919050565b60006020820190508181036000830152611c2f81611bf3565b9050919050565b7f455243313936373a206e657720696d706c656d656e746174696f6e206973206e60008201527f6f74206120636f6e747261637400000000000000000000000000000000000000602082015250565b6000611c92602d8361137a565b9150611c9d82611c36565b604082019050919050565b60006020820190508181036000830152611cc181611c85565b9050919050565b600081519050919050565b600081905092915050565b60005b83811015611cfc578082015181840152602081019050611ce1565b60008484015250505050565b6000611d1382611cc8565b611d1d8185611cd3565b9350611d2d818560208601611cde565b80840191505092915050565b6000611d458284611d08565b915081905092915050565b7f416464726573733a2063616c6c20746f206e6f6e2d636f6e7472616374000000600082015250565b6000611d86601d8361137a565b9150611d9182611d50565b602082019050919050565b60006020820190508181036000830152611db581611d79565b9050919050565b6000611dc782611541565b611dd1818561137a565b9350611de1818560208601611cde565b611dea81611064565b840191505092915050565b60006020820190508181036000830152611e0f8184611dbc565b90509291505056fe416464726573733a206c6f772d6c6576656c2064656c65676174652063616c6c206661696c6564a2646970667358221220458be2e8043f68e643850aed51f352c665f3e5519fd95140919a3742098a2d7a64736f6c63430008130033",
  "immutableReferences": {
    "2655": [
      {
        "length": 32,
        "start": 557
      },
      {
        "length": 32,
        "start": 699
      },
      {
        "length": 32,
        "start": 949
      },
      {
        "length": 32,
        "start": 1091
      },
      {
        "length": 32,
        "start": 1267
      }
    ]
  },
  "source": "// SPDX-License-Identifier: UNLICENSED\npragma solidity ^0.8.9;\n\nimport \"@openzeppelin/contracts-upgradeable/proxy/utils/UUPSUpgradeable.sol\";\nimport \"@openzeppelin/contracts-upgradeable/access/OwnableUpgradeable.sol\";\nimport \"@opengsn/contracts/src/ERC2771Recipient.sol\";\nimport \"@openzeppelin/contracts/utils/Counters.sol\";\n\ncontract TestContract is\n    OwnableUpgradeable,\n    UUPSUpgradeable,\n    ERC2771Recipient\n{\n    function initialize(\n        address _forwarder\n    ) public virtual initializer {\n        __UUPSUpgradeable_init();\n        __Ownable_init_unchained();\n        _trustedForwarder=_forwarder;\n    }\n\n    address private _trustedForwarder;\n\n    mapping(address => string) private testString;\n\n    function _authorizeUpgrade(address newImplementation)\n        internal\n        override\n        onlyOwner\n    {}\n\n    function isTrustedForwarder(address forwarder) public virtual override view returns(bool) {\n        return forwarder == _trustedForwarder;\n    }\n\n    function _msgSender()\n        internal\n        view\n        virtual\n        override(ContextUpgradeable, ERC2771Recipient)\n        returns (address sender)\n    {\n        return super._msgSender();\n    }\n\n    function _msgData()\n        internal\n        view\n        virtual\n        override(ContextUpgradeable, ERC2771Recipient)\n        returns (bytes calldata)\n    {\n        return super._msgData();\n    }\n\n    function setString (string memory _text) public {\n        testString[_msgSender()] = _text;\n    }\n}\n",
  "sourcePath": "/Users/neera/Advantev/POC/truffle/contracts/TestContract.sol",
  "compiler": {
    "name": "solc",
    "version": "0.8.19+commit.7dd6d404.Emscripten.clang"
  },
  "schemaVersion": "3.4.14",
  "updatedAt": "2023-06-06T13:27:48.055Z",
  "networkType": "ethereum",
  "devdoc": {
    "events": {
      "AdminChanged(address,address)": {
        "details": "Emitted when the admin account has changed."
      },
      "BeaconUpgraded(address)": {
        "details": "Emitted when the beacon is changed."
      },
      "Initialized(uint8)": {
        "details": "Triggered when the contract has been initialized or reinitialized."
      },
      "Upgraded(address)": {
        "details": "Emitted when the implementation is upgraded."
      }
    },
    "kind": "dev",
    "methods": {
      "getTrustedForwarder()": {
        "returns": {
          "forwarder": "The address of the Forwarder contract that is being used."
        }
      },
      "isTrustedForwarder(address)": {
        "params": {
          "forwarder": "The address of the Forwarder contract that is being used."
        },
        "returns": {
          "_0": "isTrustedForwarder `true` if the Forwarder is trusted to forward relayed transactions by this Recipient."
        }
      },
      "owner()": {
        "details": "Returns the address of the current owner."
      },
      "proxiableUUID()": {
        "details": "Implementation of the ERC1822 {proxiableUUID} function. This returns the storage slot used by the implementation. It is used to validate the implementation's compatibility when performing an upgrade. IMPORTANT: A proxy pointing at a proxiable contract should not be considered proxiable itself, because this risks bricking a proxy that upgrades to it, by delegating to itself until out of gas. Thus it is critical that this function revert if invoked through a proxy. This is guaranteed by the `notDelegated` modifier."
      },
      "renounceOwnership()": {
        "details": "Leaves the contract without owner. It will not be possible to call `onlyOwner` functions. Can only be called by the current owner. NOTE: Renouncing ownership will leave the contract without an owner, thereby disabling any functionality that is only available to the owner."
      },
      "transferOwnership(address)": {
        "details": "Transfers ownership of the contract to a new account (`newOwner`). Can only be called by the current owner."
      },
      "upgradeTo(address)": {
        "custom:oz-upgrades-unsafe-allow-reachable": "delegatecall",
        "details": "Upgrade the implementation of the proxy to `newImplementation`. Calls {_authorizeUpgrade}. Emits an {Upgraded} event."
      },
      "upgradeToAndCall(address,bytes)": {
        "custom:oz-upgrades-unsafe-allow-reachable": "delegatecall",
        "details": "Upgrade the implementation of the proxy to `newImplementation`, and subsequently execute the function call encoded in `data`. Calls {_authorizeUpgrade}. Emits an {Upgraded} event."
      }
    },
    "version": 1
  },
  "userdoc": {
    "kind": "user",
    "methods": {
      "getTrustedForwarder()": {
        "notice": ":warning: **Warning** :warning: The Forwarder can have a full control over your Recipient. Only trust verified Forwarder.Method is not a required method to allow Recipients to trust multiple Forwarders. Not recommended yet."
      },
      "isTrustedForwarder(address)": {
        "notice": ":warning: **Warning** :warning: The Forwarder can have a full control over your Recipient. Only trust verified Forwarder."
      }
    },
    "version": 1
  }
}